:100000000C9463000C948B000C948B000C948B006C
:100010000C948B000C948B000C948B000C944F046C
:100020000C948B000C948B000C948B000C94AB05FF
:100030000C948B000C948B000C948B000C948B0014
:100040000C94F90A0C948B000C94E8040C94C204F0
:100050000C948B000C948B000C948B000C948B00F4
:100060000C948B000C948B000000000023002600F1
:10007000290000000000240027002A0000000008DA
:10008000000201000003040700000000000000005F
:10009000010204081020408001020408102001021F
:1000A0000408102000000000250028002B00040494
:1000B0000404040404040202020202020303030310
:1000C00003030200880B11241FBECFEFD8E0DEBF70
:1000D000CDBF11E0A0E0B1E0E0E3F6E202C00590A0
:1000E0000D92A23CB107D9F722E0A2ECB1E001C029
:1000F0001D92A53BB207E1F710E0C3E6D0E004C0D3
:100100002197FE010E94F20EC236D107C9F70E9464
:10011000B50B0C9416130C940000CF92DF92EF9263
:10012000FF920F931F93CF93DF936C017A018B01A2
:10013000C0E0D0E0CE15DF0581F0D8016D918D01D2
:10014000D601ED91FC910190F081E02DC601099559
:10015000892B11F02196EECF7E01C701DF91CF915F
:100160001F910F91FF90EF90DF90CF900895FC01C9
:10017000538D448D252F30E0842F90E0821B930B0C
:10018000541710F0CF96089501970895FC01918DB2
:10019000828D981761F0828DDF01A80FB11D5D96E9
:1001A0008C91928D9F5F9F73928F90E008958FEF57
:1001B0009FEF0895FC01918D828D981731F0828D0B
:1001C000E80FF11D858D90E008958FEF9FEF089562
:1001D000FC01918D228D892F90E0805C9F4F821BC6
:1001E00091098F739927089583EF91E00E94E800A9
:1001F00021E0892B09F420E0822F0895FC01848DF1
:10020000DF01A80FB11DA35ABF4F2C91848D90E040
:1002100001968F739927848FA689B7892C93A0891B
:10022000B1898C91837080648C93938D848D9813A5
:1002300006C00288F389E02D80818F7D8083089538
:10024000EF92FF920F931F93CF93DF93EC0181E026
:10025000888F9B8D8C8D981305C0E889F9898081E2
:1002600085FD26C0F62E0B8D10E00F5F1F4F0F731C
:100270001127E02E8C8DE8120CC00FB607FCFACFC8
:10028000E889F989808185FFF5CFCE010E94FE00C3
:10029000F1CF8B8DFE01E80FF11DE35AFF4FF08285
:1002A0009FB7F8940B8FEA89FB89808180620AC02E
:1002B0009FB7F894EE89FF896083E889F989808186
:1002C0008370806480839FBF81E090E0DF91CF9155
:1002D0001F910F91FF90EF900895CF93DF93EC0162
:1002E000888D8823C9F0EA89FB89808185FD05C056
:1002F000A889B9898C9186FD0FC00FB607FCF5CF90
:10030000808185FFF2CFA889B9898C9185FFEDCFD7
:10031000CE010E94FE00E7CFDF91CF91089580E0EB
:1003200090E0892B29F00E94F40081110C940000C8
:100330000895089580E090E00895CF92DF92EF92C3
:10034000FF92CF93DF93EC01603282E078070CF0EC
:100350003DC077FD06C0653B71052CF064EB70E095
:1003600002C060E070E0898128E830E06901C81AC5
:10037000D10887FDD394CC0CDD1CCC0CDD1C0D2CDE
:10038000000CEE08FF088A8128E532E0281B3109BD
:1003900087FD3395220F331F220F331FC901330FFF
:1003A000AA0BBB0B9C01AD012C193D094E095F093D
:1003B000DB010E94AD0E24EB30E040E050E00E94F3
:1003C000830EC20ED31EE41EF51EB60138813C30EA
:1003D00080F5298188E890E0821B910927FD93959B
:1003E000880F991F880F991F6817790784F08A81F1
:1003F00048E552E0481B510987FD5395440F551FAE
:10040000440F551FCB01461757070CF4CA0102973A
:10041000880F991F4FB7F894232F30E0F901EE0FA2
:10042000FF1F2E0F3F1FF901EC53FE4F9283818374
:100430004FBFDF91CF91FF90EF90DF90CF90089565
:10044000FC019091C3019C30A0F481E0890F80935E
:10045000C3019083892F90E0FC01EE0FFF1F8E0FE8
:100460009F1FFC01EC53FE4F88EB9BE0928381833E
:1004700008958FEF80830895AF92BF92CF92DF925D
:10048000EF92FF920F931F93CF93DF938C01FC01A8
:10049000808198012E5F3F4F7901C0E0D0E0882332
:1004A000E1F084EBA82EB12C680135E0C30ED11C1D
:1004B000BE01C7010E949D01B5016C1B7D0BC601E9
:1004C0000E949D016FE070E080E090E00E94BF0A12
:1004D0002196C53BD10561F70EC0BE01C7010E9440
:1004E0009D016FE070E080E090E00E94BF0A2196DD
:1004F000C53BD10591F7F801118281E0DF91CF91E1
:100500001F910F91FF90EF90DF90CF90BF90AF9031
:10051000089590910001891324C0E2ECF0E0E49189
:100520009FEF90930001E130B9F098F0E230C9F408
:10053000909170009D7F9093700091E09093B00037
:100540009091B100987F94609093B1001092B300A5
:1005500008C010926E0005C090916F009D7F90932F
:100560006F0060E00C949E07CF93DF93EC0160E096
:100570008E810E949E0761E08E810E949E0760E04E
:100580008E810E949E078BE891E00197F1F7DF9141
:10059000CF9108951F93CF93DF93EC01162F88819D
:1005A0008C3008F04EC061E0812F0E94CD07888119
:1005B000E82FF0E09F01220F331FE20FF31FEC53EF
:1005C000FE4F1F739081907C192B108319821A8221
:1005D0006CE00E94E60E9CE0899FB001112440E08F
:1005E00050E09B01240F351FF901EE0FFF1F2E0F66
:1005F0003F1FF901EC53FE4F908196FD16C04F5FEF
:100600005F4F4C30510569F781110FC01092800087
:1006100082E0809381001092850010928400B19A4C
:1006200080916F00826080936F00E881F0E0CF01DD
:10063000880F991FE80FF91FEC53FE4F80818064EB
:1006400080838881DF91CF911F9108950E941910B6
:100650000F931F93CF93DF93EC0160E089810E9499
:100660009E0783E090E00197F1F761E089810E94A5
:100670009E0783E290E00197F1F760E089810E9494
:100680009E07888190E0FC01E057FF4F6491FC01D8
:10069000E255FF4FE491F0E0EE0FFF1FE859FF4FE6
:1006A0008591949100E412E42FE030E0462F0E94FF
:1006B000430B611571058105910549F0DC01CB0102
:1006C0000196A11DB11DBC01CD019F7003C060E06A
:1006D00070E0CB010A811B8120E030E0061717078C
:1006E0002807390748F00C811D8120E030E06017B1
:1006F00071078207930718F460E070E0CB01DF9187
:10070000CF911F910F910895CF93DF93EC0160E09B
:100710008C810E949E0761E08B810E949E0768E5A4
:1007200072E089810E94A70864EF71E080E090E0A8
:100730000E94BF0A68EE73E089810E94A70864EFF7
:1007400071E080E090E00E94BF0A8981DF91CF9143
:100750000C9489020F931F93CF93DF93FB012181A8
:100760002223E9F08B01EC0161E08C810E949E075D
:1007700061E08B810E949E0768E572E089810E949A
:10078000A708F8018181882319F0C8010E943C0262
:100790008981DF91CF911F910F910C948902DF9194
:1007A000CF911F910F910895AF92BF92CF92DF9298
:1007B000EF92FF920F931F93CF93DF93FB01218161
:1007C000211162C08B01EC0161E08C810E949E07C7
:1007D00060E08B810E949E0761E08A810E949E07F3
:1007E0006CED75E089810E94A70868EC70E080E0FC
:1007F00090E00E94BF0A68E077E089810E94A70824
:1008000068EC70E080E090E00E94BF0A89810E945D
:10081000890260E08A810E949E07F801818181112E
:1008200033C0808198012E5F3F4F7901C4EBD0E047
:100830008823E9F084EBA82EB12C680135E0C30EC3
:10084000D11CBE01C7010E949D01B5016C1B7D0B2F
:10085000C6010E949D016FE070E080E090E00E9480
:10086000BF0A219770F781E0F80181830DC0BE01B6
:10087000C7010E949D016FE070E080E090E00E945F
:10088000BF0A2197A0F7EFCFDF91CF911F910F9172
:10089000FF90EF90DF90CF90BF90AF9008951F92A0
:1008A0000F920FB60F9211242F933F934F935F93A4
:1008B0006F937F938F939F93AF93BF93EF93FF9328
:1008C0008091EF019091F001A091F101B091F201BE
:1008D000892B8A2B8B2B51F19091EC01E091ED014A
:1008E000F091EE018081892780838091EF019091C2
:1008F000F001A091F101B091F201181619061A0643
:100900001B06C4F48091EF019091F001A091F101D8
:10091000B091F2010197A109B1098093EF01909381
:10092000F001A093F101B093F20104C080910001A5
:100930000E948902FF91EF91BF91AF919F918F919A
:100940007F916F915F914F913F912F910F900FBECB
:100950000F901F9018956115710579F0FB010190BA
:100960000020E9F73197AF01461B570BDC01ED91F1
:10097000FC910280F381E02D099480E090E00895DD
:100980000C94AB041F920F920FB60F9211242F9369
:100990003F934F935F936F937F938F939F93AF9307
:1009A000BF93EF93FF9383EF91E00E94FE00FF91CE
:1009B000EF91BF91AF919F918F917F916F915F91D7
:1009C0004F913F912F910F900FBE0F901F90189550
:1009D0001F920F920FB60F9211242F938F939F9314
:1009E000EF93FF93E0910302F09104028081E09184
:1009F0000902F0910A0282FD12C0908180910C02DE
:100A00008F5F8F7320910D02821751F0E0910C02DD
:100A1000F0E0ED50FE4F958F80930C0201C0808175
:100A2000FF91EF919F918F912F910F900FBE0F909B
:100A30001F901895CF92DF92EF92FF920F931F9322
:100A4000CF93DF936C017C0187E0E80EF11CC0E0DE
:100A5000D0E0062F10E0B8010C2E02C07595679506
:100A60000A94E2F76170F70181917F010E949E076D
:100A70002196C430D10579F7C601DF91CF911F913E
:100A80000F91FF90EF90DF90CF900C94B402CF9233
:100A9000DF92EF92FF920F931F93CF93DF93EC01BE
:100AA000F62E642F8C810E949E078D818F3F19F056
:100AB00060E00E949E078F850F2D10E084FF25C007
:100AC0006E0187E0C80ED11CE12CF12CB8010E2C70
:100AD00002C0759567950A94E2F76170F6018191FD
:100AE0006F010E949E07FFEFEF1AFF0A88E0E816E9
:100AF000F10461F7CE01DF91CF911F910F91FF902B
:100B0000EF90DF90CF900C94B402B80184E075951B
:100B100067958A95E1F7CE010E941A056F2DCE01E7
:100B2000DF91CF911F910F91FF90EF90DF90CF90C9
:100B30000C941A0541E00E94470581E090E0089579
:100B400040E00C94470561E00E94A0058BE39FE123
:100B50000197F1F708951F920F920FB60F9211248B
:100B60002F933F934F935F936F937F938F939F93B5
:100B7000AF93BF93EF93FF938091C20187FF05C0AE
:100B800010928500109284001BC02091C201022E99
:100B9000000C330B8091C30190E02817390784F4CF
:100BA0008091C201082E000C990BFC01EE0FFF1F73
:100BB0008E0F9F1FFC01EC53FE4F808186FD15C0F8
:100BC0008091C2018F5F8093C2012091C201022EE9
:100BD000000C330B8091C30190E028173907C4F44F
:100BE0008091C2018C3064F113C08091C201082E43
:100BF000000C990BFC01EE0FFF1F8E0F9F1FFC01D5
:100C0000EC53FE4F808160E08F730E949E07D8CF27
:100C10008091840090918500049680349C4918F45A
:100C200080E49CE905C08091840090918500049641
:100C300090938900809388008FEF8093C2013BC01E
:100C400020918400309185008091C201082E000C13
:100C5000990BFC01EE0FFF1F8E0F9F1FFC01EC5341
:100C6000FE4F81819281820F931F90938900809320
:100C700088008091C201082E000C990BFC01EE0F38
:100C8000FF1F8E0F9F1FFC01EC53FE4F808186FFDC
:100C900012C08091C201082E000C990BFC01EE0FCE
:100CA000FF1F8E0F9F1FFC01EC53FE4F808161E000
:100CB0008F730E949E07FF91EF91BF91AF919F911B
:100CC0008F917F916F915F914F913F912F910F90F5
:100CD0000FBE0F901F9018953FB7F894809199021E
:100CE00090919A02A0919B02B0919C0226B5A89B7C
:100CF00005C02F3F19F00196A11DB11D3FBFBA2FAE
:100D0000A92F982F8827820F911DA11DB11DBC010D
:100D1000CD0142E0660F771F881F991F4A95D1F7D2
:100D20000895CF92DF92EF92FF920F931F93CF938C
:100D3000DF93CDB7DEB7A1970FB6F894DEBF0FBE35
:100D4000CDBF9C0140E050E019A28E010F5D1F4F06
:100D50008AE0C82ED12CE12CF12CCA01B901A701DF
:100D600096010E94B50E605DF80162938F01211516
:100D700031054105510589F7BF0183EF91E00E94DC
:100D8000AB048C016CE671E083EF91E00E94AB0450
:100D9000800F911FA1960FB6F894DEBF0FBECDBF96
:100DA000DF91CF911F910F91FF90EF90DF90CF9047
:100DB0000895FC019389923010F4915001C091E0A4
:100DC000DF01A90FB11D54966C916068CF010C949E
:100DD000A005CF93DF93EC018091A90281110BC094
:100DE00080E190E00E94F80E9093A8028093A70201
:100DF00081E08093A90280919202909193022091C8
:100E000001013091020128173907B9F190930201CD
:100E100080930101209191022F93209190022F93B2
:100E20009F938F9388E991E09F938F931F9280E126
:100E30008F938091A8028F938091A7028F930E9435
:100E40001E10CE010E94A30564EA71E0CE010E944B
:100E5000C004CE010E94D9068DB79EB70A960FB680
:100E6000F8949EBF0FBE8DBF6091A7027091A8023B
:100E7000CE01DF91CF910C94C004DF91CF91089502
:100E80008091920290919302209190023091910270
:100E90008217930788F401969093930280939202AD
:100EA00065EB71E083EF91E00E94C00480919202B3
:100EB000909193020C9491060895809192029091E2
:100EC0009302009789F00197909393028093920286
:100ED00065EB71E083EF91E00E94C0048091920283
:100EE000909193020C9491060895833081F028F438
:100EF000813099F08230A1F008958730A9F08830D0
:100F0000B9F08430D1F4809180008F7D03C080914E
:100F100080008F7780938000089584B58F7702C01A
:100F200084B58F7D84BD08958091B0008F7703C014
:100F30008091B0008F7D8093B00008951F93CF9370
:100F4000DF93282F30E0F901E458FF4F8491F90135
:100F5000E057FF4FD491F901E255FF4FC491CC23E4
:100F6000C1F0162F81110E947507EC2FF0E0EE0FF3
:100F7000FF1FEC55FF4FA591B4919FB7F894111145
:100F800004C08C91D095D82302C0EC91DE2BDC9369
:100F90009FBFDF91CF911F910895CF93DF9390E092
:100FA000FC01E057FF4F2491FC01E255FF4F849173
:100FB000882361F190E0880F991FFC01EE58FF4FE4
:100FC000C591D491FC01EC55FF4FA591B4916111ED
:100FD00009C09FB7F8948881209582238883EC917B
:100FE0002E230BC0623061F49FB7F8948881322FB2
:100FF000309583238883EC912E2B2C939FBF06C0C2
:101000008FB7F894E8812E2B28838FBFDF91CF9183
:101010000895EF92FF920F931F93CF93DF93EC010C
:10102000623018F08F8588608F876B8B1C8A80E414
:101030008D8B80E18E8B80E58F8B61E08C810E94AF
:10104000CD078D818F3F19F061E00E94CD0761E0EF
:101050008E810E94CD077E0187E0E80EF11C00E042
:1010600010E08F8584FD03C084E090E002C088E03A
:1010700090E0081719074CF461E0F70181917F01B6
:101080000E94CD070F5F1F4FECCF8BE39DE00197D0
:10109000F1F760E08C810E949E0760E08E810E94E3
:1010A0009E078D818F3F19F060E00E949E076F853B
:1010B00064FD1DC063E0CE010E941A050BE416E436
:1010C000C8010197F1F763E0CE010E941A05C8013B
:1010D0000197F1F763E0CE010E941A0583E592E0E3
:1010E0000197F1F762E0CE010E941A0516C0606216
:1010F000CE010E94A0058BE496E40197F1F76F857D
:101100006062CE010E94A00583E592E00197F1F7AD
:101110006F856062CE010E94A0056F856062CE017E
:101120000E94A00584E0888B6CE0CE010E94A0059F
:10113000CE010E94A30582E0898B66E0CE01DF919B
:10114000CF911F910F91FF90EF900C94A0058F927B
:101150009F92AF92BF92CF92DF92EF92FF921F9336
:10116000CF93DF93EB0190910001891721F09F3F0E
:1011700009F0F9C104C0E2ECF0E0149179C0809369
:101180000001E2ECF0E014911F3F09F4ECC11130D2
:1011900009F448C050F1123009F06AC01092B00052
:1011A0001092B1009091B00092609093B000909135
:1011B000B10091609093B100282F30E0F901E25521
:1011C000FF4FE491F0E0EE0FFF1FEC55FF4F45910C
:1011D00054915093EE014093ED01F901E057FF4F18
:1011E000E491E093EC0112E0BAC114BC15BC94B5D3
:1011F000926094BD95B5916095BD282F30E0F901BE
:10120000E255FF4FE491F0E0EE0FFF1FEC55FF4F6A
:1012100045915491F901E057FF4FE491E0939E020C
:1012200010E09DC110928000109281009091810089
:1012300098609093810090918100916090938100DB
:10124000282F30E0F901E255FF4FE491F0E0EE0F76
:10125000FF1FEC55FF4F45915491F901E057FF4FA7
:10126000E491E0939D0261E00E94CD0711E0A4C0EB
:1012700017FD79C161E00E94CD07812F8D7F09F0B4
:101280009BC06E01E12CF12C60E072E18AE790E0F6
:10129000A70196010E94830E49015A01BA01A901D2
:1012A00041505109610971094F3F510561057105AF
:1012B00009F008F445C060E472E48FE090E0A70113
:1012C00096010E94830EBA01A9014150510961099A
:1012D00071091230E9F44F3F51056105710509F0BC
:1012E00008F4DDC060E970ED83E090E0A7019601AD
:1012F0000E94830EBA01A901415051096109710987
:101300004F3F51056105710509F020F583E04DC09F
:101310004F3F510561057105A9F0A0F068E478EE32
:1013200081E090E0A70196010E94830EBA01A90115
:101330004150510961097109112309F4E1C0D8C074
:1013400081E001C082E0111130C095B5987F892BF2
:1013500085BD69C068E478EE81E090E0A701960160
:101360000E94830EBA01A901415051096109710916
:101370004F3F51056105710509F008F48EC064E224
:1013800074EF80E090E0A70196010E94830EBA01FD
:10139000A90141505109610971094F3F510561058A
:1013A000710511F008F07DC085E09091B100987F43
:1013B000892B8093B10031C06E01E12CF12C60E0EB
:1013C00072E18AE790E0A70196010E94830EBA01BC
:1013D000A90141505109610971094115510581E087
:1013E0006807710580F068E478EE81E090E0A7017D
:1013F00096010E94830EBA01A90141505109610969
:10140000710983E001C081E0113039F490918100CD
:10141000987F892B8093810018C01130B1F0123071
:1014200049F11111A0C047BD8FEF9FEFDC01809300
:10143000A3029093A402A093A502B093A602809168
:101440006E00826080936E008EC05093890040933E
:1014500088008FEF9FEFDC0180939F029093A002A2
:10146000A093A102B093A20280916F00826080934A
:101470006F0079C04093B3008FEF9FEFDC01809342
:10148000EF019093F001A093F101B093F2018091EC
:10149000700082608093700066C084E086CF82E036
:1014A00084CF62E17AE780E090E0A70196010E9494
:1014B000830EBA01A90141505109610971094F3FD9
:1014C00051056105710591F088F0D501C4012AE04C
:1014D000B595A795979587952A95D1F7AC01BD014C
:1014E000415051096109710987E05FCF86E05DCF06
:1014F0004F3F51056105710509F098F684E023CF4F
:101500004F3F51056105710541F138F162E17AE71C
:1015100080E090E0A70196010E94830EBA01A90124
:1015200041505109610971094F3F5105610571052C
:1015300091F088F0D501C4013AE0B595A79597954B
:1015400087953A95D1F7AC01BD0141505109610928
:10155000710985E0FACE84E0F8CE83E0F6CE61E052
:101560000E94CD078ECEDF91CF911F91FF90EF901B
:10157000DF90CF90BF90AF909F908F9008958F9203
:101580009F92AF92BF92CF92DF92EF92FF926B0148
:101590007C010E946C064B015C01C114D104E10482
:1015A000F104F1F00E946C06DC01CB018819990965
:1015B000AA09BB09883E9340A105B10570F321E05B
:1015C000C21AD108E108F10888EE880E83E0981E5F
:1015D000A11CB11CC114D104E104F10419F7DDCF41
:1015E000FF90EF90DF90CF90BF90AF909F908F9043
:1015F00008951F920F920FB60F9211242F933F93CD
:101600008F939F93AF93BF93809195029091960291
:10161000A0919702B09198023091940223E0230F99
:101620002D3720F40196A11DB11D05C026E8230F1A
:101630000296A11DB11D2093940280939502909370
:101640009602A0939702B09398028091990290918C
:101650009A02A0919B02B0919C020196A11DB11D1E
:101660008093990290939A02A0939B02B0939C025C
:10167000BF91AF919F918F913F912F910F900FBE8E
:101680000F901F901895CF92DF92EF92FF920F93D9
:101690001F93E82FF92F05C00150110921093109C5
:1016A00061F1908196239417B9F305C00150110997
:1016B0002109310911F1908196239413F7CFC12CA0
:1016C000D12CE12CF12C0AC08FEFC81AD80AE80AF5
:1016D000F80A0C151D052E053F0579F0808186233B
:1016E000841791F36C2D7D2D8E2D9F2D1F910F91C1
:1016F000FF90EF90DF90CF90089560E070E080E081
:1017000090E01F910F91FF90EF90DF90CF900895A0
:10171000E3EFF1E01382128288EE93E0A0E0B0E004
:1017200084839583A683B7838DE091E09183808342
:1017300085EC90E09587848784EC90E09787868796
:1017400080EC90E0918B808B81EC90E0938B828B8E
:1017500082EC90E0958B848B86EC90E0978B868B67
:10176000118E128E138E148E0895CF93DF9300D0B6
:1017700000D000D0CDB7DEB7789484B5826084BD48
:1017800084B5816084BD85B5826085BD85B5816085
:1017900085BD80916E00816080936E001092810003
:1017A00080918100826080938100809181008160BE
:1017B000809381008091800081608093800080917F
:1017C000B10084608093B1008091B000816080930B
:1017D000B00080917A00846080937A0080917A00D2
:1017E000826080937A0080917A00816080937A0091
:1017F00080917A00806880937A001092C100E09115
:101800000302F091040282E08083E091FF01F091F5
:1018100000021082E0910102F09102028FEC8083BD
:1018200010920B02E0910702F091080286E080839B
:10183000E0910502F0910602808180618083E09151
:101840000502F0910602808188608083E0910502A4
:10185000F0910602808180688083E0910502F0911A
:10186000060280818F7D808388E190E00E94F80EDF
:101870009C838B83FC01138212828FE191E0918320
:10188000808388E0848389E0858387E086838AE09B
:1018900087838BE080878CE081878DE08287138649
:1018A000148615861686178661E0CF010E94090806
:1018B0002B813C813093EB012093EA0162E0C90166
:1018C0000E9409088B819C810E94A30567E271E058
:1018D0008B819C810E94C0048091EA019091EB0170
:1018E0009C838B830E94D9066DE271E08B819C8181
:1018F0000E94C0048AE090E090939102809390024D
:1019000081E290E00E94F80E9C838B83FC0113829D
:1019100014828C01095F1F4FC8010E942002CB80F6
:10192000DC80FAE0CF0ED11CC6010E942002EB80C1
:10193000FC802FE0E20EF11CC7010E9420028B8187
:101940009C8142960E94200260E083E10E94CD07C4
:10195000EFE8F0E08491E3EAF0E0B490E1ECF0E04D
:10196000A490AA2079F081110E947507EA2DF0E079
:10197000EE0FFF1FE859FF4FA591B491EC91BE22E5
:1019800081E009F480E08170EB81FC818083F09339
:10199000E901E093E80184E0818382E1828361E0F0
:1019A0000E94CD0782E0EB81FC81838383E0848306
:1019B000808135965F0165E070E081110FC0C8013C
:1019C0000E94CA0266E070E0C6010E94CA0281E07D
:1019D000EB81FC8185838683C50116C0C8010E9406
:1019E000CA02EB81FC81158211E01683C5010E94B9
:1019F0003C0266E070E0C7010E94CA02EB81FC81F4
:101A000015861687CF010D960E943C028EE0EB8171
:101A1000FC81858B80E1868B60E08EE00E94CD07A3
:101A200061E0EB81FC8186890E94CD078FE0EB812C
:101A3000FC81838F81E1848F60E08FE00E94CD077D
:101A400061E0EB81FC81848D0E94CD0722ED36E0C0
:101A5000EB81FC81328F218F84E394E4908F878B1C
:101A600030A3278F968F858F2091EA013091EB016B
:101A70003C832B83C9010E94A3056AE371E08B813B
:101A80009C810E94C0048091EA019091EB019C83AB
:101A90008B830E94D906E091E801F091E9018081F1
:101AA000811109C067E471E08B819C810E94C004B0
:101AB00063E571E008C06FE671E08B819C810E9454
:101AC000C0046DE771E083EF91E00E94AB046CE627
:101AD00071E083EF91E00E94AB0460ED77E080E07D
:101AE00090E00E94BF0A0091EA011091EB01E091A1
:101AF000E801F091E901FE83ED83C8010E94E90647
:101B0000ED81FE8180817596FC83EB832D813E8182
:101B1000255E3F4F1901811174C0812C912CAD803D
:101B2000BE8035E0A30EB11C8B819C810E942803EE
:101B30006B017C016AE070E080E090E00E94BF0AE7
:101B4000C1010E9428032B013C0181101EC0C11459
:101B5000D104E104F10441F0B5018D819E810E9420
:101B6000D40399249394E0CF992039F1672B682B03
:101B7000692BD1F66D817E816B5F7F4F8D819E8158
:101B80000E94AA030E945D0714C091102FC0672B0A
:101B9000682B692BB9F4CD28CE28CF2829F66D8182
:101BA0007E816B5F7F4F8D819E810E94AA030E9480
:101BB0004007C8010E94E90680C0672B682B692B8B
:101BC00009F47BC08091920290919302009709F4EE
:101BD00091C020919002309191028217930709F0F1
:101BE00089C08D819E810E948403912CCD28CE28AE
:101BF000CF2809F099CF45284628472809F094CFE7
:101C00005CC04D805E808DE0480E511C6D807E80F2
:101C100095E0690E711C19821A828B819C810E9449
:101C200028036B017C016AE070E080E090E00E9494
:101C3000BF0AC1010E9428034B015C01C114D104F9
:101C4000E104F10441F0B3018D819E810E94D4032F
:101C5000E1E0EA830EC0FA81FF2359F0B3018D81E0
:101C60009E810E94AA030E945D07C8010E94E906A6
:101C70001A8289288A288B2891F08091920290916B
:101C80009302009749F120919002309191028217BE
:101C9000930711F58D819E810E948403BECF298117
:101CA000222311F1B2018D819E810E94AA030E941C
:101CB0004007C8010E94E90617C060E0ED81FE817F
:101CC00084810E949E0760E0ED81FE8183810E94F5
:101CD0009E070E948F0107CFB2018D819E810E94D5
:101CE000D403F1E0F98399CFCD28CE28CF2829F36A
:101CF000198293CFB5018D819E810E94D403912CCE
:101D00008824839473CF052E97FB1EF400940E94C1
:101D10009A0E57FD07D00E94B50E07FC03D04EF473
:101D20000C949A0E50954095309521953F4F4F4F0A
:101D30005F4F089590958095709561957F4F8F4F77
:101D40009F4F08950E94D70EA59F900DB49F900DB0
:101D5000A49F800D911D11240895B7FF0C94A20E2D
:101D60000E94A20E821B930B0895A1E21A2EAA1BB9
:101D7000BB1BFD010DC0AA1FBB1FEE1FFF1FA2173B
:101D8000B307E407F50720F0A21BB30BE40BF50B38
:101D9000661F771F881F991F1A9469F760957095C1
:101DA000809590959B01AC01BD01CF010895A29F44
:101DB000B001B39FC001A39F700D811D1124911D1F
:101DC000B29F700D811D1124911D0895991B79E01A
:101DD00004C0991F961708F0961B881F7A95C9F7BB
:101DE00080950895EE0FFF1F0590F491E02D099462
:101DF0000F931F93CF93DF938230910510F482E00D
:101E000090E0E091B302F091B40220E030E0A0E075
:101E1000B0E0309719F14081518102811381481758
:101E20005907C8F08417950769F4109731F0129696
:101E30000C93129713961C9327C00093B302109330
:101E4000B40222C02115310519F04217530718F4C6
:101E50009A01BD01EF01DF01F801DBCF211531054A
:101E6000F9F0281B390B2430310580F48A819B81DD
:101E70006115710521F0FB019383828304C0909367
:101E8000B4028093B302FE01329644C0FE01E20F19
:101E9000F31F8193919322503109398328833AC0EB
:101EA0002091B1023091B202232B41F4209105011F
:101EB000309106013093B2022093B10220910301C8
:101EC000309104012115310541F42DB73EB7409101
:101ED000070150910801241B350BE091B102F091EC
:101EE000B202E217F307A0F42E1B3F0B28173907A5
:101EF00078F0AC014E5F5F4F2417350748F04E0F66
:101F00005F1F5093B2024093B1028193919302C03C
:101F1000E0E0F0E0CF01DF91CF911F910F910895A4
:101F2000CF93DF93009709F481C0FC0132971382AD
:101F30001282A091B302B091B402109781F4208173
:101F40003181820F931F2091B1023091B202281784
:101F5000390751F5F093B202E093B10267C0ED0189
:101F600020E030E0CE17DF0740F44A815B819E011C
:101F700041155105F1F0EA01F5CFD383C2834081C9
:101F80005181840F951FC817D90759F48881998109
:101F9000840F951F0296918380838A819B8193830E
:101FA00082832115310529F4F093B402E093B30242
:101FB0003DC0E901FB83EA8349915991C40FD51FC4
:101FC000EC17FD0761F480819181840F951F0296C3
:101FD000E90199838883828193819B838A83E0E0EE
:101FE000F0E012968D919C911397009719F0FD01E6
:101FF000DC01F7CF8D919C9111979D012E5F3F4F92
:10200000820F931F2091B1023091B2022817390735
:1020100069F4309729F41092B4021092B30202C00E
:1020200013821282B093B202A093B102DF91CF91DA
:10203000089581E090E0F8940C941613AEE0B0E0BF
:10204000E4E2F0E10C94ED120D891E898F89988DE0
:1020500026E02C831A83098397FF02C080E090E872
:1020600001979E838D83AE01455E5F4F698D7A8DAA
:10207000CE0101960E944E104D815E8157FD0AC02F
:102080002F813885421753070CF49A01F801E20FAB
:10209000F31F10822E96E4E00C940913ABE0B0E03D
:1020A000E4E5F0E10C94DF126C017B018A01FC0194
:1020B00017821682838181FFCCC1CE0101963C013B
:1020C000F6019381F70193FD859193FF81917F0143
:1020D000882309F4BAC1853239F493FD859193FFC1
:1020E00081917F01853229F4B60190E00E9445126A
:1020F000E7CF912C212C312CFFE1F315D8F08B3256
:1021000079F038F4803279F08332A1F4232D206104
:102110001DC08D3261F0803369F4232D216016C01B
:10212000832D8260382EE32DE4603E2E2AC0F32DED
:10213000F8601DC037FC2DC020ED280F2A3040F07C
:102140008E32B9F436FC81C1232D2064322E19C0A1
:1021500036FE06C08AE0989E200D1124922E11C0F2
:10216000EAE02E9E200D1124222EF32DF0623F2E48
:1021700008C08C3621F4832D8068382E02C0883642
:1021800041F4F70193FD859193FF81917F018111C6
:10219000B3CF982F9F7D9554933028F40C5F1F4F39
:1021A0009FE399830DC0833631F0833771F0833517
:1021B00009F059C021C0F801808189830E5F1F4F4B
:1021C00088248394912C530113C02801F2E04F0E10
:1021D000511CF801A080B18036FE03C0692D70E06B
:1021E00002C06FEF7FEFC5010E943A124C018201DD
:1021F000F32DFF773F2E16C0280122E0420E511C1E
:10220000F801A080B18036FE03C0692D70E002C0E5
:102210006FEF7FEFC5010E942F124C01F32DF06884
:102220003F2E820133FC1BC0822D90E08816990658
:10223000B0F4B60180E290E00E9445122A94F4CFF7
:10224000F50137FC859137FE81915F01B60190E081
:102250000E94451221102A9421E0821A91088114CB
:10226000910471F7E8C0843611F0893641F5F80120
:1022700037FE07C060817181828193810C5F1F4F9F
:1022800008C060817181072E000C880B990B0E5FCE
:102290001F4FF32DFF763F2E97FF09C09095809535
:1022A000709561957F4F8F4F9F4FF0683F2E2AE0CA
:1022B00030E0A3010E948112882E861845C0853720
:1022C00031F4232D2F7EB22E2AE030E025C0932D4D
:1022D000997FB92E8F36C1F018F4883579F0B5C0E2
:1022E000803719F0883721F0B0C0E92FE061BE2EA9
:1022F000B4FE0DC0FB2DF460BF2E09C034FE0AC031
:10230000292F2660B22E06C028E030E005C020E16B
:1023100030E002C020E132E0F801B7FE07C0608182
:102320007181828193810C5F1F4F06C06081718132
:1023300080E090E00E5F1F4FA3010E948112882E63
:102340008618FB2DFF773F2E36FE0DC0232D2E7FE6
:10235000A22E891458F434FE0BC032FC09C0832D20
:102360008E7EA82E05C0B82CA32C03C0B82C01C0AB
:10237000B92CA4FE0FC0FE01E80DF11D8081803351
:1023800021F49A2D997EA92E09C0A2FE06C0B3940D
:10239000B39404C08A2D867809F0B394A3FC11C0CD
:1023A000A0FE06C0B21488F4280C922C9B180EC014
:1023B000B21460F4B60180E290E00E944512B3943A
:1023C000F7CFB21418F42B1802C0982C212CA4FEBD
:1023D00010C0B60180E390E00E944512A2FE17C033
:1023E000A1FC03C088E790E002C088E590E0B60158
:1023F0000CC08A2D867859F0A1FE02C08BE201C084
:1024000080E2A7FC8DE2B60190E00E94451289149B
:1024100038F4B60180E390E00E9445129A94F7CF19
:102420008A94F301E80DF11D8081B60190E00E94CD
:1024300045128110F5CF222009F442CEB60180E288
:1024400090E00E9445122A94F6CFF601868197818A
:1024500002C08FEF9FEF2B96E2E10C94FB12FC0180
:102460000590615070400110D8F7809590958E0FBF
:102470009F1F0895FC016150704001900110D8F732
:10248000809590958E0F9F1F08950F931F93CF9364
:10249000DF93FB01238121FD03C08FEF9FEF2CC051
:1024A00022FF16C046815781248135814217530788
:1024B00044F4A081B1819D012F5F3F4F3183208380
:1024C0008C93268137812F5F3F4F3783268314C03B
:1024D0008B01EC01FB010084F185E02D0995892B2E
:1024E000E1F6D80116968D919C9117970196179653
:1024F0009C938E931697CE01DF91CF911F910F91F0
:102500000895FA01AA27283051F1203181F1E89489
:102510006F936E7F6E5F7F4F8F4F9F4FAF4FB1E0D6
:102520003ED0B4E03CD0670F781F891F9A1FA11DD1
:10253000680F791F8A1F911DA11D6A0F711D811DD2
:10254000911DA11D20D009F468943F912AE0269F97
:1025500011243019305D3193DEF6CF010895462FF6
:102560004770405D4193B3E00FD0C9F7F6CF462FD7
:102570004F70405D4A3318F0495D31FD4052419340
:1025800002D0A9F7EACFB4E0A695979587957795FD
:102590006795BA95C9F700976105710508959B0184
:1025A000AC010A2E06945795479537952795BA950D
:1025B000C9F7620F731F841F951FA01D08952F92E6
:1025C0003F924F925F926F927F928F929F92AF92C3
:1025D000BF92CF92DF92EF92FF920F931F93CF9310
:1025E000DF93CDB7DEB7CA1BDB0B0FB6F894DEBFA7
:1025F0000FBECDBF09942A88398848885F846E84CD
:102600007D848C849B84AA84B984C884DF80EE8016
:10261000FD800C811B81AA81B981CE0FD11D0FB61F
:10262000F894DEBF0FBECDBFED010895F894FFCF43
:10263000FFFFFF0000B50220000000000020018D18
:1026400000B7006D01E800C600DA00000000009A43
:10265000058D009A019901436F76696400526F6F8E
:102660006D20436F6E74726F6C004C41594F55541E
:10267000204D4F44453A0048594252494420444F66
:102680004F52004C61796F7574204D6F64653A202C
:1026900048796272696420446F6F72000D0A0053BA
:1026A0004550455241544520444F4F52004C6179AA
:1026B0006F7574204D6F64653A2053657065726163
:1026C000746520446F6F7200434F554E543A256431
:1026D0002F256400504F50554C4154494F4E204DCA
:1026E0004554455200506F70756C6174696F6E3A55
:0226F0000000E8
:00000001FF
